:020000040800F2
:1000000018580020690200080F360008DD2E00088D
:100010000D360008B5120008E94300080000000092
:10002000000000000000000000000000A90100081E
:100030008D1300080000000005020008213B0008A5
:10004000830200088302000883020008830200087C
:10005000830200088302000883020008830200086C
:10006000830200088302000883020008830200085C
:10007000830200088302000883020008830200084C
:10008000B912000883020008830200080000000083
:1000900000000000000000000000000083020008D3
:1000A000E13B000883020008ED3B000883020008E2
:1000B000830200088302000883020008830200080C
:1000C00083020008830200088302000883020008FC
:1000D00083020008F94200085D43000800000000A8
:1000E0008302000883020008830200080000000069
:1000F0000000000000000000000000008302000873
:100100000000000083020008830200088302000848
:1001100000000000000000000000000000000000DF
:1001200083020008C5120008D112000883020008EB
:100130008302000800000000000000000000000032
:100140000000000000000000000000008302000822
:100150008302000883020008DD12000871430008D2
:100160008302000883020008000000000000000075
:10017000000000000000000000000000000000007F
:1001800000000000830200080000000000000000E2
:1001900083020008DFF80CD000F096FE004800470C
:1001A000F94F0008185800202C4B19680868B0E86F
:1001B000F04F80F30988BFF36F8F4FF0000080F39A
:1001C000118870470000000008480068006880F34C
:1001D00008884FF0000080F3148862B661B6BFF360
:1001E0004F8FBFF36F8F00DF00BF00BF08ED00E04F
:1001F000DFF80C00016841F470010160704700BF36
:1002000088ED00E0EFF30980BFF36F8F134B1A689E
:100210001EF0100F08BF20ED108A20E9F04F10608B
:1002200009B44FF0500080F31188BFF34F8FBFF334
:100230006F8F06F02BF84FF0000080F3118809BC97
:1002400019680868B0E8F04F1EF0100F08BFB0EC56
:10025000108A80F30988BFF36F8F70471400002065
:10026000EFF30580704700000648804706480047C6
:10027000FEE7FEE7FEE7FEE7FEE7FEE7FEE7FEE756
:10028000FEE7FEE7D13B0008950100082DE9F05F8D
:100290000546002092469B468846064681464024F5
:1002A0001BE0284641464746224600F0F0FC5346F4
:1002B0005A46C01A914110D311461846224600F002
:1002C000D7FC2D1A67EB01084F462246012000217A
:1002D00000F0CEFC17EB00094E41201EA4F10104F2
:1002E000DFDC484631462A464346BDE8F09F40EAF7
:1002F00001039B0703D009E008C9121F08C0042AA4
:10030000FAD203E011F8013B00F8013B521EF9D28A
:100310007047D2B201E000F8012B491EFBD27047B2
:100320000022F6E710B513460A4604461946FFF7C1
:10033000F0FF204610BD421C10F8011B0029FBD124
:10034000801A704710B5002200E0521C835C8C5C60
:10035000A34201D1002BF8D1D8B2E1B2401A10BDAE
:100360000FB400B58DB010A909900B9000914FF01B
:10037000FF300A9000200C90054806900548079031
:100380006A4609A80F9900F0B9FC0DB05DF814FB9E
:10039000190D0008370D00082DE9FF5F1D464FF0CD
:1003A000FF3BD5E9014691465F464FF00008A96939
:1003B0007F1C01988847296A824688470028F6D121
:1003C000BAF1FF3F0CD024F4C064002E19DD6006A2
:1003D00014D5BAF12B0F09D0BAF12D0F0ED103E0CD
:1003E000584604B0BDE8F09F44F48064A9697F1CBE
:1003F00001988847761E8246002E02DDBAF1300F42
:1004000003D0B9F1000F26D032E0A969761E44F47A
:1004100000747F1C019888478246002E05DDBAF1E2
:10042000780F06D0BAF1580F03D0B9F1000F10D0F1
:100430001EE0B9F1000F02D0B9F1100F18D1A9696F
:10044000761E24F400747F1C019888478246102091
:1004500002E0082000E00A20814609E008FB0908C4
:10046000A969761E44F400747F1C0198884782466F
:10047000002E05DD4946504600F02BFC0028EDDA41
:10048000E96901988847A00502D46FF00100A8E748
:10049000E00725D1600613D5600502D5C8F100003C
:1004A00000E0404629680A1D2A600968220501D536
:1004B000087015E0220701D5088011E008600FE000
:1004C0002868011D29600068210502D580F8008098
:1004D00006E0210702D5A0F8008001E0C0F8008006
:1004E00038467EE72DE9FF4F087883B09946FF280C
:1004F00005D0491C2D2804D00024002008E000204D
:100500000BE00124F9E700EB800003EB4000491CFD
:100510000B78FF2BF7D104B14042002302931478EB
:1005200019461D462D2C01D02B2C04D1521C2D2CEC
:1005300013D000240294AA461478FF2C0FD00A2569
:10054000A3FB057801FB05814FF0000C03FB0C11A8
:10055000521CE3194AEB0101EEE70124EAE781446A
:1005600053EA010002D019F5C87F06DA039800218A
:10057000C0E9001107B0BDE8F08F0025AE4E2F4650
:10058000DFF8B882184600F07BFCCDE90001B9F134
:10059000000002DAC9F1000400E004460023A74A83
:1005A0001AEB030B42EB045A12E0E00707D02A468D
:1005B00033463846414600F0ECF9074688462A465D
:1005C00033461046194600F0E4F905460E4664101D
:1005D000002CEAD1DDE90001B9F1000F5A4653467B
:1005E00006DA00F048FA3A46434600F044FA05E0DD
:1005F00000F0CFF93A46434600F0CBF9029A0AB12F
:1006000081F00041039AC2E90001B3E72DE9FF4FF1
:100610001F468DB0D7E901464FF0FF382E204546E2
:100620004FF000090B90B9696D1C0E988847396A24
:10063000824688470028F6D1BAF1FF3F0AD024F459
:10064000D064002E11DDBAF12B0F08D0BAF12D0FB6
:100650000BD102E0404611B08DE744F48064B969E3
:100660006D1C0E9888478246761E6946600501D546
:100670002D2000E02B208DF8000001F1010B0DF181
:10068000200809E0B9696D1C0E98884782460F98CA
:1006900044F40074761E0560002E02DDBAF1300FBE
:1006A000F0D00B998A453ED144F0800406E00F99C2
:1006B000681CA9F1010944F400740860B9696D1C53
:1006C000761E0E98884782463028F0D02BE00B9992
:1006D0008A4505D1200603D444F08004761E18E034
:1006E000504603F089FF08B30DF11301761E44F460
:1006F00000748B4508D2AAF130000BF8010B2006DC
:1007000007D5A9F1010003E0200602D409F1010098
:100710008146A00502D50F99681C0860B9696D1C57
:100720000E9888478246002ED1DC53E0002E51DD22
:10073000BAF1650F02D0BAF1450F4BD1A00549D5EA
:10074000B9696D1C24F44074761E0E988847824661
:10075000002E0CDD2B2804D0BAF12D0F07D144F464
:100760008074B9696D1C0E9888478246761EE00534
:1007700001D52D2100E02B2108F8011BCDF82C809C
:1007800021E00DF12901761E44F4007488450CD255
:10079000AAF1300010F0FF0088F8000002D10B9998
:1007A000884509D908F1010806E0E00501D524488B
:1007B00001E042F20F708146B9696D1C0E988847BE
:1007C00082460F980560002E04DD504603F014FFAA
:1007D0000028D6D1F9690E988847FF208BF80000D1
:1007E00088F800000020069007904B466A4608A94A
:1007F00006A8FFF777FEA00502D46FF001002AE7F4
:1008000014F0240F0AD0E00714D1DDE9061238688D
:10081000031D3B600068C0E900120BE0DDE9060142
:1008200000F0F4F90146E00704D13868021D3A608F
:100830000068016028460EE7000014400000F03F09
:10084000F1D8FFFF2DE9FE4F804681EA0300C00F7B
:100850000C46009021F0004123F00045B8EB020067
:10086000A94105D24046214690461C460B46024609
:1008700023F00040104347D0270DC7F30A00C3F30D
:100880000A510290401A019040286BDAC3F313001A
:1008900040F4801B0098924620B10023D2EB030A5B
:1008A00063EB0B0B01985946C0F14002504600F033
:1008B000DFF906460D4650465946019A00F0F7F911
:1008C00010EB08006141002487EA115284EAE773C3
:1008D0001A4340D0009A62B3019A012A4FEA0752A4
:1008E00015DC001B61EB02014FF0004202EA0752E7
:1008F000CDE90042001C41F5801132462B4600F044
:1009000071FA03B0BDE8F08F40462146F9E7001BBD
:1009100061EB0201001C41F5801300185B412018B7
:10092000A2F5001747EB030140EAD570B6196D41F7
:1009300011E06D084FEA360645EAC0754FEA0752E6
:10094000001B61EB0201001C41F5801149084FEAD0
:1009500030000019514132462B4603B0BDE8F04F3C
:1009600000F031BA0098012240000023D0EB0202CF
:1009700063EBE073009821464FEAE074B8EB0000A7
:1009800061EB0401E9E783F000435BE781F000419C
:1009900058E72DE9FE4F81EA030404F0004421F0FA
:1009A000004100944FF0000B23F0004350EA010493
:1009B0005ED052EA03045BD0C3F30A54C1F30A5574
:1009C0002C44A4F2F3340194A0FB0254C1F31301AC
:1009D00041F48011C3F3130343F4801301FB024479
:1009E00000FB034E840A970A44EA815447EA83577E
:1009F000A4FB076802958D0A05FB07854FEA932C37
:100A000004FB0C542705029D4FEA065847EA1637A7
:100A1000B5EB08056EEB070C870E920E47EA8117BF
:100A200042EA8312A7FB0201B6EB0B0164EB000460
:100A30002B0D43EA0C335E1844EB1C50DA4651464A
:100A4000E7FB0201C5F313044FEA0B3343EA1453E7
:100A50004FEA0432019C43EA0603A4F10C04029419
:100A6000009CCDE900B400F0BDF903B0BDE8F08F03
:100A700000200146F9E72DE9F04D81EA030404F076
:100A8000004B21F0004514464FF0000A23F00041CE
:100A900050EA050220D054EA01021DD0C5F30A57DE
:100AA0000246C5F31303C1F31300C1F30A5640F421
:100AB000801543F48013A7EB0608101BD64608F2F6
:100AC000FD3873EB050002D308F1010801E092182C
:100AD0005B41B8F1000F03DA00200146BDE8F08D5C
:100AE00000204FF48011064684460EE0171B73EB7E
:100AF000050705D3121B63EB050306434CEA010C03
:100B000049084FEA300092185B4150EA0107EDD1E5
:100B100052EA030012D082EA040083EA0501084386
:100B200005D0101BAB4106D20122002306E00022B3
:100B30004FF0004302E06FF0010253101AEB060081
:100B40004CEB085110EB0A0041EB0B01BDE8F04DF6
:100B500000F039B90EB5C10F80EAE0700844CA0749
:100B6000002140F233438DE80E000A460B4600F0A8
:100B700039F903B000BD70B5C1F30A5201F0004568
:100B80000024C1F3130140F2FF3341F480119A4273
:100B900001DA002070BD40F233439A42A2F23342A0
:100BA00003DC524200F073F800E090402C43F1D097
:100BB000404270BD00F0004230F000400AD0C10D4C
:100BC00001F56071C0F3160042EA0151C208400706
:100BD00011437047002001467047000030B5041EE5
:100BE00071F1000404DB4FF00044404264EB01016A
:100BF000141E73F1000405DB1C464FF00043524203
:100C000063EB0403994208BF904230BD01F00043FA
:100C100030B421F0004150EA010206D00A0DA2F5DD
:100C20006072C1F31301002A02DC30BC002070475F
:100C3000440F44EAC104C100E01830BC00EBC250CC
:100C400000F08AB830B50B4601460020202201246E
:100C500009E021FA02F59D4205D303FA02F5491B8A
:100C600004FA02F52844151EA2F10102F1DC30BDA0
:100C7000202A04DB203A00FA02F10020704791405C
:100C8000C2F1200320FA03F3194390407047202A51
:100C900004DB203A21FA02F00021704721FA02F326
:100CA000D040C2F120029140084319467047202AE3
:100CB00006DBCB17203A41FA02F043EAE07306E084
:100CC00041FA02F3D040C2F1200291400843194694
:100CD00070473A2800D2303820F02002412A01D350
:100CE000A2F13700884201D34FF0FF307047000077
:100CF000026811441378016018467047D1600449B6
:100D000051610449116200211161114600F0F4B8EB
:100D1000F10C0008ED0E0008426842B1016811F8BC
:100D2000013B23B1521EC0E9001218467047012151
:100D3000C160881E704742685AB1C368016843B9F0
:100D400083688B4205D0491E521CC0E90012002066
:100D500070474FF0FF3070470029A8BF7047401C14
:100D6000490008BF20F00100704710B4B0FA80FCC1
:100D700000FA0CF050EA010404BF10BC704749B1FE
:100D8000CCF1200421FA04F411FA0CF118BF01216E
:100D900021430843A3EB0C01CB1D4FEA00614FEA4E
:100DA000102042BF002010BC704700EBC35010441D
:100DB0000029A4BF10BC7047401C490008BF20F0A8
:100DC000010010BC704710B5141E73F1000408DA5E
:100DD000401C41F1000192185B411A4301D120F0FF
:100DE000010010BD2DE9F04D92469B4611B1B1FABC
:100DF00081F202E0B0FA80F220329046FFF738FF2D
:100E000004460F4640EA0A0041EA0B0153465A469F
:100E1000084313D0114653EA010019D0C8F140022B
:100E20005046FFF734FF05460E46504659464246A7
:100E3000FFF71EFF084305D0012004E02046394695
:100E4000BDE8F08D0020054346EAE0762C433743A9
:100E50000A986305E40AA0EB08000022FD0A44EAB0
:100E600047540A3002D500200146E9E70105101970
:100E70006941DDE9084500196941BDE8F04DA2E787
:100E80000EB540F2334202920022CDE90022134611
:100E9000FFF7A8FF03B000BDC1F30A52C1F313016D
:100EA00040F2FF3341F480119A4202DA00200146F9
:100EB000704740F233439A42A2F2334202DC52427C
:100EC000FFF7E5BEFFF7D4BE064C074D06E0E0682D
:100ED00040F0010394E8070098471034AC42F6D381
:100EE000FFF75CF99C760008BC760008C0B24FF4AE
:100EF000F05100F097B900002DE9F34F8BB04FF09F
:100F0000000801F10C000C464FF0010B46460DF1B4
:100F1000080A01906269012101989047051E2DD0B1
:100F2000252D2CD0216A8847C0B162690121019822
:100F30009047216A88470028F7D1411E62690198CD
:100F4000904700E0761CA1690B988847216A884782
:100F50000028F7D1E1690B988847DBE7A1690B9876
:100F600088470746A84201D1761CD3E7E1690B9870
:100F700088477F1C02D1B8F1000F6FD046E10027EF
:100F800062693D463946019890472A2804D1626932
:100F90000121019890470125DFF8849262690121BF
:100FA00001989047A0F130010A290AD24F45E5DCAB
:100FB00007EB870100EB4107303FDFD445F0100518
:100FC000ECE7E90601D46FF000476C280AD04C2802
:100FD00014D0682815D06A280DD074281CD07A281F
:100FE0001AD01DE062690121019890476C2802D057
:100FF00045F0040514E045F002050DE045F020053C
:101000000AE06269012101989047682802D045F002
:10101000080505E045F400656269012101989047E3
:10102000C4E9015765283DD019DC58287AD00CDC7A
:10103000452837D004DC252826D0412831D131E09D
:1010400046282FD047282CD12CE05B2877D0612868
:1010500028D063287CD0642823D15AE0D0E06F28C0
:1010600048D008DC66281DD067281BD0692821D00D
:101070006E2816D127E0702845D0732868D07528CF
:1010800047D078280DD14DE0A1690B9888470546D7
:1010900025283FF469AFE1690B9888476D1C3FF440
:1010A0006AAFB3E023466A466FF001000B99FFF781
:1010B000ADFA9EE045F040006060A80723464FF07F
:1010C000000236D43EE0E8077FF447AF2068011DF8
:1010D00021600068290501D506701BE7290701D5A5
:1010E000068017E7A90703D5F117C0E9006111E7EA
:1010F00006600FE745F040006060A80723464FF008
:10110000080216D41EE040F60E0125EA01006060D8
:1011100016E045F040006060A80723464FF00A0241
:1011200007D40FE045F040006060A80708D52346CB
:1011300010226FF001000B99AFF3008059E007E037
:10114000234610226FF001000B99FFF725F950E0BC
:101150004FF000094F464B46632802D05B2806D06B
:1011600040E0E80601D40120A06001273AE062696E
:101170000121019890475E2805D14FF0010962696D
:10118000494601989047216939B900210A465346DA
:1011900043F82120491C0829FADBB0B3216969B959
:1011A000C11700EBD16253110AEB830122F01F0239
:1011B000821A01200B68904003430B606269012191
:1011C000019890475D28E8D1B9F1000F09D00020BF
:1011D000514651F82020D24341F82020401C0828D5
:1011E000F7DB02AB224600976FF001000B99AFF3DB
:1011F000008000280CDA401C08D1BBF1000F05D09C
:101200004FF0FF300DB0BDE8F08FFFE74046F9E743
:10121000E90701D108F1010806444FF0000B79E617
:10122000CCCCCC0C7F2801D9002208E0064A02EB86
:101230005002C007127800D1120902F00F020120FB
:1012400090400840704700004E760008184B10B5DB
:10125000002003F1340211180C7E7CB103EB8001F5
:1012600052F8204091ED060ABDEEC00A10EE101AA9
:10127000091BB4290FDDA1F5B47111E003EB800463
:1012800094ED060ABDEEC00A10EE104A42F8204066
:1012900001240C7607E011F1B40F01DA01F5B47105
:1012A00002EB8004E160401CC0B20328D3D310BD20
:1012B000C8530020FEE70000014800F0C5B8000058
:1012C000D0030020014800F0BFB800003004002027
:1012D000014800F0B9B8000010030020014800F0F8
:1012E000B3B800007003002001681823CAB2103A96
:1012F000B2FBF3F2054B6FF30901032A9B5CC36554
:1013000000D9091D8165084670470000E06D00089E
:1013100010B5014600208B698A6A4FF0C07453B142
:10132000B3F5005F15D072B1012A0CD0022A0AD0A1
:10133000032A09D104E01AB1012A06D0022A03D1F6
:10134000C96AC90100D5012010BDC96AA142FAD0FD
:1013500010BD002AF7D0012AF2D0022AF3D0032AC6
:10136000F3D010BD30B50468256825F480252560CC
:10137000046863608368402B036803D09960006849
:10138000C26030BD9A600068C16030BD704772B6FF
:10139000FEE72DE9F0410446876D00F0C1FA0646EC
:1013A00094F835000025022806D08020606584F876
:1013B00034500120BDE8F0812068016821F0160159
:1013C00001602068416921F080014161206C08B909
:1013D000A06C20B12068016821F00801016020683C
:1013E000016821F0010101600CE000F099FA801B16
:1013F000052807D920206065032084F8350084F88B
:101400003450D7E720680068C007EED194F85C102C
:101410003F208840B860012084F8350084F83450BB
:101420000020C7E790F83510022903D080214165DC
:1014300001207047052180F835100068016821F00F
:1014400001010160002070472DE9F84304464FF088
:101450000009CDF8009063484FF41651A56D00685F
:10146000B0FBF1F72E6894F85C10082000FA01F147
:1014700031420FD021680A6852070BD50A6822F062
:1014800004020A6094F85C108840A860606D40F027
:101490000100606594F85C104FF0010808FA01F053
:1014A000304208D021684969090604D5A860606DFA
:1014B00040F00200606594F85C10042088403042DF
:1014C00008D021680968890704D5A860606D40F0DC
:1014D0000400606594F85C1010208840304218D0F9
:1014E00021680968090714D5A860206801684903C4
:1014F00004D50068000308D5A16C07E00168C905A0
:1015000003D4016821F008010160216C09B1204673
:10151000884794F85C1020208840304231D0216800
:101520000968C9062DD5A86094F8350005282068FB
:10153000016806D0490347D5006800031DD4616CDB
:101540001CE021F0160101602068416921F0800152
:101550004161206C08B9A06C20B12068016821F0BD
:101560000801016094F85C103F208840A86084F86E
:10157000358084F83490216D1FE0E16B09B120467D
:101580008847606D00282BD0606DC00714D00520FF
:1015900084F835002068016821F00101016000989D
:1015A000401C0090B84203D820680068C007F6D1FC
:1015B00084F8358084F83490E16C002910D001B0B3
:1015C0002046BDE8F04308470168C905D5D4016845
:1015D00021F01001016084F8358084F83490CCE764
:1015E000BDE8F883100000202DE9F041044600F02A
:1015F00097F906465CB1022084F83500002584F88E
:1016000034502068016821F0010101600DE00120E3
:10161000BDE8F08100F084F9801B052805D9202061
:101620006065032084F83500F2E720680068C00791
:10163000F0D12268116820480140D4E90103184321
:10164000D4E903363343184363691843A369184345
:10165000E3691843236A18430843616A042903D1E4
:10166000D4E90B1319430843106020684069666A87
:1016700020F0070130460E43012704280CD1A06A50
:101680000643E06A40B12046FFF742FE20B1402009
:10169000606584F83570BAE7206846612046FFF738
:1016A00023FE94F85C203F2191408160656584F8B9
:1016B00035700020ACE700003F8010F02DE9F041CC
:1016C0000446866D90F83400002501280DD00120D5
:1016D00084F8340094F835700020012F07D084F886
:1016E000340002252846BDE8F0810220FBE70227EE
:1016F00084F8357060652046FFF734FE94F85C107E
:101700003F208840B0602068016841F01601016008
:10171000206C20B12068016841F008010160206858
:10172000016841F001010160DCE700002DE9F84F9C
:10173000DFF8B8A10022012403254FF00F090AF1B8
:10174000040BAAF1040E00BF0B6804FA02F6334042
:10175000B34273D10F7907F00307012F01D0022F95
:1017600016D187684FEA420805FA08FC27EA0C07F9
:10177000D1F80CC00CFA08FC4CEA070CC0F808C001
:101780004768B7430E79C6F3001696403E4346605D
:101790000E79F643B6070DD0C768560005FA06FC69
:1017A00027EA0C07D1F808C00CFA06FC4CEA070C33
:1017B000C0F80CC00E7906F00306022E10D1D60830
:1017C00000EB8608D8F8206057074FEAD76C09FA73
:1017D0000CF7BE430F6907FA0CF73743C8F82070BF
:1017E00006684FEA420C05FA0CF7BE430F7907F082
:1017F000030707FA0CF7374307604E6816F4403FBB
:101800006DD03B4E376847F480473760366822F02A
:10181000030706F480460096364E07EB060CDCF80C
:10182000086897073F0F09FA07F826EA0806DFF865
:10183000C880404503D14FF000081EE04FE0DFF8BC
:10184000BC80404502D14FF0010816E0DFF8B080BF
:10185000404502D14FF002080FE0DFF8A880404574
:1018600002D14FF0030808E0DFF89C80404502D128
:101870004FF0040801E04FF0070808FA07F848EABB
:101880000608CCF80888DAF800605746D1F804C09A
:101890009E435FEACC2C00D51E433E60DBF800601F
:1018A0005F46D1F804C09E435FEA8C2C00D51E43EE
:1018B0003E60DEF800607746D1F804C09E435FEAE0
:1018C0008C3C00D51E433E60084F083F3E68D1F86F
:1018D00004C09E435FEACC3C00D51E433E60521CD0
:1018E000102AFFF431AFBDE8F88F0000083C01403A
:1018F0004438024000300140000002400004024031
:1019000000080240000C024000100240006908403C
:1019100000D0012070470AB1816170470904FBE7DC
:101920000148806870470000040000200248816878
:101930000278114481607047040000200B4810B504
:10194000016841F400710160016841F48061016047
:10195000016841F480710160032000F099F80520CE
:1019600000F006F800F04AF8002010BD003C0240EC
:1019700030B505461C4887B00024016841F4803129
:101980000160006806A900F48030009001A800F012
:101990002BF900F059F91549154AB0FBF1F115483A
:1019A000491E026040F2E732C0E90324C0E9011495
:1019B000846100F07FFB040012D10E4800F0D4FBDC
:1019C00004000DD1182000F035F8102D07D20022A8
:1019D0002946182000F03CF80748056000E0012483
:1019E00007B0204630BD00004438024040420F009E
:1019F0000040014090040020080000200C4882B004
:101A0000016841F480410160006800F4804000906A
:101A10000748001F016841F0805101600068002202
:101A200000F0805000900F21901E02B000F010B81E
:101A300044380240002809DB00F01F0201219140D8
:101A40004009800000F1E020C0F80011704700005C
:101A5000F0B40E4B1B680C46C3F30223C3F1070519
:101A6000042D00D90425191D072901D2002300E007
:101A7000DB1E012606FA05F1491E214099409E40D1
:101A8000761E16403143F0BC02F0D4BC0CED00E0F1
:101A9000064900F0070208684FF6FF03184040EAC5
:101AA0000220034A10430860704700000CED00E07C
:101AB0000000FA052DE9F0470E46050065D0DFF875
:101AC0001481D8F80000F7B200F00700B04207D246
:101AD00088F80070D8F8000000F00700B04254D138
:101AE00028683D4C810712D5400703D5206840F493
:101AF000E05020602878000703D5206840F460405B
:101B000020602068A96820F0F00008432060287851
:101B1000C0072DD0304968680839012812D0022842
:101B200013D0032811D00968890700292DDA21680C
:101B300021F0030101432160FFF7F2FE814641F2EB
:101B4000883A0EE009688903EFE709688901ECE744
:101B5000FFF7E6FEA0EB0901514502D90320BDE8DD
:101B6000F0872068696800F00C00B0EB810FEFD1BE
:101B7000D8F80010404601F00701B14207D90770BC
:101B8000006800F00700B04201D00120E7E72878A4
:101B9000400705D52068E96820F4E050084320603C
:101BA0002878000706D52068296920F4604040EABB
:101BB000C100206000F058F82168084AC1F3031101
:101BC000515CC8400649086006480068FFF7D0FE2F
:101BD0000020C4E7003C024008380240E86D0008DD
:101BE00010000020080000200F2202600C4A136839
:101BF00003F003034360136803F0F003836013688A
:101C000003F4E053C36012684FF4E05303EAD202D6
:101C100002610448006800F0070008607047000097
:101C200008380240003C0240044805490068096841
:101C3000044AC1F38221515CC84070471000002063
:101C400008380240F86D0008044805490068096832
:101C5000044AC1F34231515CC84070471000002073
:101C600008380240F86D0008154810B5006810F0FB
:101C70000C02144813D04110042A0FD0082A0ED1A8
:101C80000F4C241F2268236802F03F025B0207D535
:101C90002068C0F38810A0FB010106E0084610BDD3
:101CA0002168C1F38811A1FB00010023FEF7EEFAC1
:101CB0002168C1F30141491C4900B0FBF1F010BD9E
:101CC000083802400024F4002DE9F84F04006ED0DB
:101CD0002078DFF84C93C007A9F104054AD009F138
:101CE00004000168C1F38101012908D00068C0F334
:101CF000810002280AD1D9F80000400206D52868E0
:101D0000800337D560680028E1D033E06068B0F523
:101D1000803F10D0B0F5A02F286810D020F480307C
:101D20002860286820F4802028606068A8B1FFF748
:101D3000F7FD06460DE0286840F48030F4E740F4F3
:101D400080202860F7E700BFFFF7EAFD801B6428CA
:101D500073D828688003F7D50CE0FFF7E1FD06464D
:101D600005E000BFFFF7DCFD801B6428F0D8286881
:101D70008003F7D42078DFF8AC8280074FF0000AA8
:101D80003ED5A748001D016811F00C0F08D000686F
:101D9000C0F3810002280BD1D9F80000400207D41B
:101DA0002868800716D5E068012800D112E033E1E9
:101DB000E068B8B10120C8F80000FFF7B1FD0646A1
:101DC00005E000BFFFF7ACFD801B0228C0D82868E3
:101DD0008007F7D52868216920F0F80040EAC100A3
:101DE00028600DE0C8F800A0FFF79AFD064604E061
:101DF000FFF796FD801B02281FD828688007F7D4BC
:101E00002078000722D5864F87486169703771B105
:101E100001210160FFF784FD064604E0FFF780FD25
:101E2000801B022809D838688007F7D50EE0C0F873
:101E300000A0FFF775FD064605E082E0FFF770FDA4
:101E4000801B02287DD838688007F7D420784007A7
:101E500068D5DFF8CCB100270BF13C0BDBF80000B4
:101E6000C0000BD4DBF8001041F08051CBF800101B
:101E7000DBF80000012700F0805000906B4E3068C6
:101E8000C00510D4306840F480703060FFF748FD22
:101E9000009005E0FFF744FD0099401A022850D851
:101EA0003068C005F6D55E4EA0686C3601280FD0AC
:101EB0000528306810D020F001003060306820F034
:101EC00004003060A068B8B1FFF72AFD00900FE071
:101ED000306840F00100F4E740F004003060F7E7BC
:101EE000FFF71EFD0099411A41F28830814266D801
:101EF00030688007F4D50EE0FFF712FD009007E090
:101F0000FFF70EFD0099411A41F28830814256D800
:101F100030688007F4D42FB1DBF8001021F0805135
:101F2000CBF80010A069C8B33D49091D0968C1F389
:101F3000810102294AD00228504607D0C8F8600023
:101F400000E03CE0FFF7ECFC04463BE04746C8F805
:101F50006000FFF7E5FC064605E000BFFFF7E0FC88
:101F6000801B02282BD828688001F7D4D4E9070108
:101F70000843A16A2E4A490802EB0141626A41EA1C
:101F80008211084394F82C1040EA0161C9F800104E
:101F900001203866FFF7C4FC044606E03EE000BFBF
:101FA000FFF7BEFC001B022809D828688001F7D57E
:101FB00034E000BFFFF7B4FC001B022802D9032065
:101FC000BDE8F88F28688001F4D427E00128F7D015
:101FD000D9F80000E26900F4800191421CD1226A24
:101FE00000F03F01914217D147F6C071626A01408B
:101FF000B1EB821F10D1A26A4FF0FF3300F44031E1
:1020000003EB5202B1EB024F06D194F82C1000F012
:102010007060B0EB016F01D00120D1E70020CFE765
:102020000438024000004742800E474200700040E2
:102030000000FFFF7047704770B590F83C20012A00
:102040002CD0012480F83C40022280F83D20036817
:102050005A689D6822F070060A6832435A60104B35
:1020600002689A420ED0B2F1804F0BD00D4B9A42CB
:1020700008D00D4B9A4205D00C4B9A4202D00C4B23
:102080009A4204D1496825F080031943916080F891
:102090003D40002180F83C10084670BD022070BD14
:1020A000000001400004004000080040000C004017
:1020B0000040014010B5040003D094F83D0010B179
:1020C00007E0012010BD002084F83C00204600F00D
:1020D0001FF8022084F83D00211D206801F08CFDCE
:1020E000012084F8460084F83E0084F83F0084F81C
:1020F000400084F8410084F8420084F8430084F8EA
:10210000440084F8450084F83D00002010BD000024
:1021100008B500681149884209D11148016841F0A9
:1021200008010160006800F00800009008BD0D493A
:102130008842FBD10A48001D016841F480210160FA
:102140000068002200F48020009005211A20FFF78B
:102150007FFCBDE808401A20FFF76CBC000C004073
:10216000403802400048014090F83D10012901D05C
:1021700001207047022180F83D100168CA6842F0D2
:102180000102CA6000680E4988420ED0B0F1804F4B
:102190000BD00C49884208D00B49884205D00B4926
:1021A000884202D00A49884204D1816801F00701BF
:1021B000062903D0016841F0010101600020704749
:1021C000000001400004004000080040000C0040F6
:1021D0000040014070B5044690F83C0000250128FD
:1021E00017D0012684F83C60022084F83D00206866
:1021F000826822F0770222F47F42826008685028C9
:1022000038D00DDC20284FD005DC90B3102811D138
:102210004AE0022070BD302846D040280AD13BE079
:1022200060282FD070280DD0B0F5805F03D0B0F5B6
:10223000005F12D0012584F83D60002084F83C0046
:10224000284670BDCB68D1E90121206801F031FD3D
:102250002068816841F0770109E0CB68D1E901216C
:10226000206801F026FD2068816841F4804181608A
:10227000E1E719E0CA684968206801F0CFFD502104
:10228000206806E0CA684968206801F0D8FD60212E
:10229000206801F018FDCEE7CA684968206801F09F
:1022A000BDFD40212068F4E7226801461046F0E7B2
:1022B0002DE9F0410D46040003D094F83D0018B11B
:1022C00008E00120BDE8F081002084F83C002046B1
:1022D00000F040F8022084F83D002068816844F254
:1022E000070291438160211D206801F085FC22686E
:1022F00090689169166A2B68AF69034340F2033016
:10230000814341EA0721A868EF6908434FF6FC4181
:102310008843E96840EA0720014328692F6A0001E1
:1023200040EA0730084369686D6926F0AA0646EA64
:102330000515294393602268906154F8460B0162A9
:10234000012004F81F09E0752076E0762077A0755B
:102350000020B7E770B586B0044614216846FDF743
:10236000DFFF21481F4E256800221F491038C02476
:102370000223B54217D10D6845F002050D600968CA
:1023800001F002010591016841F00101016000685E
:102390000094CDE9013200F00100CDE90430694636
:1023A0000392124819E0124EB54218D10D6845F05B
:1023B00004050D60096801F004010591016841F010
:1023C0000201016000680094CDE9013200F00200D2
:1023D000CDE90430694603920648FFF7A7F906B035
:1023E00070BD000000040040403802400000024080
:1023F000000800400004024070B590F83E600446BA
:1024000090F83F5090F8423090F84320022021B1DC
:1024100004290ED0012E1BD114E0012E18D1012B5E
:1024200016D184F83E0084F8420001220021206881
:1024300020E0012D0CD1012A0AD184F83F0084F854
:10244000430014E0012D03D1012B01D1012A01D059
:10245000012070BD84F83E0084F83F0084F84200FB
:1024600084F8430001220021206801F015FC0122BC
:102470000421206801F010FC2068016841F001018E
:102480000160002070BD70472DE9F04104460068EE
:10249000C66805694FF00007A90713D5B10711D524
:1024A000F91E01610120207720688069800720469D
:1024B00002D0FFF7E8FF04E000F0A6F8204600F0A5
:1024C00038F92777680716D5700714D521686FF09B
:1024D00004000861022020772068806910F4407FA2
:1024E000204602D0FFF7CFFF04E000F08DF8204631
:1024F00000F01FF92777280715D5300713D5216875
:102500006FF008000861042020772068C069800708
:10251000204602D0FFF7B7FF04E000F075F8204630
:1025200000F007F92777E80616D5F00614D52168DC
:102530006FF010000861082020772068C06910F44F
:10254000407F204602D0FFF79EFF04E000F05CF8D9
:10255000204600F0EEF82777E80708D0F00706D00D
:1025600021686FF001000861204600F05DF928063F
:1025700008D5300606D521686FF080000861204636
:10258000FFF758FD680608D5700606D521686FF07C
:1025900040000861204600F057F9A8060AD5B006A9
:1025A00008D521686FF0200008612046BDE8F041A1
:1025B000FFF741BDBDE8F08110B586B00446142197
:1025C0006846FDF7ADFE0D492068884214D10C48DD
:1025D0000021026842F001020260006800F0010080
:1025E0000590032000900220CDE90101CDE9031000
:1025F00069460448FFF79AF806B010BD000C004089
:102600003038024000000240704770B5044690F830
:102610003C0000260D4601280FD0012084F83C0024
:102620006AB1042A1DD0082A2FD00C2A3FD00126D7
:10263000002084F83C00304670BD022070BD206848
:1026400001F04AFB2068816941F00801816120683E
:10265000816921F004018161206881692A6911433F
:1026600011E0206801F060FB2068816941F400619D
:1026700081612068816921F48061816120688169BC
:102680002A6941EA02218161D2E7206801F078FBE2
:102690002068C16941F00801C1612068C16921F069
:1026A0000401C1612068C1692A69114311E02068F1
:1026B00001F092FB2068C16941F40061C1612068AA
:1026C000C16921F48061C1612068C1692A6941EA58
:1026D0000221C161ACE710B5040003D094F83D00BD
:1026E00010B107E0012010BD002084F83C00204616
:1026F00000F01EF8022084F83D00211D206801F042
:102700007BFA012084F8460084F83E0084F83F00FC
:1027100084F8400084F8410084F8420084F84300C3
:1027200084F8440084F8450084F83D00002010BD82
:102730007047704710B50446022249B104290ED0F3
:10274000082913D094F84100012816D0012010BDAB
:1027500094F83E000128F9D184F83E200FE094F867
:102760003F000128F2D184F83F2008E094F84000AF
:102770000128EBD184F8402001E084F841200122B7
:10278000206801F089FA12492068884203D1426C1E
:1027900042F400424264206888420ED0B0F1804F7B
:1027A0000BD00C49884208D00B49884205D00B4910
:1027B000884202D00A49884204D1816801F00701A9
:1027C000062903D0016841F001010160002010BD1D
:1027D000000001400004004000080040000C0040E0
:1027E0000040014070B50E49884218D10D4842683A
:1027F0001168496A418012680026566200F114048B
:10280000018065682868406A00B2FEF7A3F981F08C
:102810000041FEF7B0F9608029684E62208070BDEB
:10282000F0010020BC51002010B50446FFF7DAFF8C
:1028300004492068884203D1BDE81040FFF776B80C
:1028400010BD0000004001407047704710B50446BD
:102850000068406994F84110C0F3C010212911D1DB
:1028600080B12068143050E8001F21F0800140E85A
:102870000012002AF5D1A06B08B1FEF78AFD2046B0
:1028800001F0BAFB2068406994F84210C0F3801050
:10289000222911D180B12068143050E8001F21F0A6
:1028A000400140E80012002AF5D1E06B08B1FEF7C4
:1028B00070FD204601F079FB002010BD704700003C
:1028C000F8B5016804460868CA684B6910F00F0F34
:1028D0004FF0000559D003F0010602F4907737431A
:1028E00065D0C10705D0D10503D5616C41F0010168
:1028F0006164410705D5D90703D0616C41F002013D
:102900006164810705D5D90703D0616C41F00401EA
:102910006164010707D502F02001314303D0616CE7
:1029200041F008016164616C00293AD0800604D549
:10293000900602D5204601F06DFB20684069616C6D
:10294000C0F38010090700D460B3204601F02DFBCE
:1029500020684069400621D52068143050E8001FE7
:1029600021F0400140E80012002AF5D1E06BA8B147
:1029700072490165E06BFEF755FD002811D0E06B50
:10298000016D01B0BDE8F040084783060FD59306FE
:102990000DD52046BDE8F84001F03CBB2046FFF7CE
:1029A0008DFFF8BD2046FFF789FF6564F8BD266BF3
:1029B0002023012E7ED1C6067CD5D6067AD508689E
:1029C0004868009048694FF0020640064DD5E26B1A
:1029D000106840684FF480770004000C3AD0A18D55
:1029E000814237D9E085D069B8422DD020680C30BB
:1029F00050E8001F21F4807140E80012002AF5D150
:102A00002068143050E8001F21F0010140E8001256
:102A1000002AF5D12068143050E8001F21F0400151
:102A200040E80012002AF5D184F84230256320687E
:102A30000C3050E8001F21F0100140E80012002A7D
:102A4000F5D1E06BFEF7A5FC6663A08DE18D401A21
:102A500081B206E0A18D8142A8D1D069B842A5D14A
:102A600066632046FFF7F1FEF8BDA08DE18D401AA8
:102A700081B2E08D0028F7D00029F5D020680C3015
:102A800050E8002F22F4907240E80027002FF5D183
:102A90002068143050E8002F22F0010240E800279F
:102AA000002FF5D184F84230256320680C3050E8BF
:102AB000002F00E006E022F0100240E80023002B87
:102AC000F3D1CDE705062BD5150629D594F841009D
:102AD0002128C9D1A068B0F5805F01D12069B0B1CB
:102AE000206A411C2162216800784860E08C401E09
:102AF0000004000CE084B7D12068C16821F0800197
:102B0000C1602068C16841F04001C160F8BD206A21
:102B10000088C0F308004860206A801C2062E5E756
:102B20004006F3D55006F1D5CA68204622F040028F
:102B3000CA6084F8413000F0CFF9F8BD633E000868
:102B400070B5040004D094F84100002510B106E0EF
:102B5000012070BD84F84050204600F023F8242066
:102B600084F841002068C16821F40051C16020460A
:102B700001F0B2FA2068016921F4904101612068F6
:102B8000416921F02A0141612068C16841F4005186
:102B9000C1606564202084F8410084F842006563C8
:102BA000002070BD2DE9F04786B004461421684628
:102BB000FDF7B6FB6E48DFF8B4811438D4F800C0D6
:102BC0006B49022203230726DFF8A8A10025071579
:102BD0004FF00069C4454DD1D1F800C04CF0100C45
:102BE000C1F800C0096801F010010591016841F0C9
:102BF000010101600068694600F00100059058027B
:102C00008DE82500CDE903365046FEF78FFD5B4E7B
:102C10005948C8463060C6E90195C6E90357756151
:102C2000B561F561356230467562FEF7DDFC08B1CD
:102C3000FEF7ADFBE663B463504E4F486036783024
:102C4000E6E802084020A1C64C4846F81459603016
:102C5000B561F56135627562FEF7C6FC08B1FEF735
:102C600096FBA663002205212520B463FEF7F0FE43
:102C700025203BE0DFF80881C4453CD13C49091FD1
:102C8000D1F800C04CF4003CC1F800C0096801F460
:102C900000310591016841F0010101600068694659
:102CA00000F0010005900C208DE82500CDE90336E9
:102CB0005046FEF73BFD314E3248C0363060C6E923
:102CC0000195C6E903577561B561F5613562304616
:102CD0007562FEF789FC08B1FEF759FBE663002236
:102CE00005212620B463FEF7B3FE2620FEF7A2FEE0
:102CF00006B0BDE8F087244EB445F9D10E6846F021
:102D000020060E60096801F020010591016841F07C
:102D1000040101600068694600F004000590C020CD
:102D20008DE825000820CDE903301848FEF7FEFCA9
:102D30001148174E183830608005C6E90105C6E90C
:102D400003577561B561F561356230467562FEF70E
:102D50004BFC08B1FEF71BFBE66300220521472070
:102D6000B463FEF775FE4720C0E700000010014085
:102D7000443802400000024040640240100300203A
:102D800000440040886002400014014000080240F6
:102D90003004002090F84230202B01D002207047F0
:102DA00021B11AB10023036301F01CBA012070475E
:102DB000704770472DE9F843044690F84100984663
:102DC00016460D46202802D00220BDE8F88385B1C2
:102DD0007EB100206064212084F84100FEF7A0FD50
:102DE000A6848146E684A0682027B0F5805F02D0E3
:102DF00003E00120E9E7206910B12E4600250EE02E
:102E000000260CE08021204601F03CFAA8B9C6B1AA
:102E100016F8010B21684860E08C401EE084E08CCD
:102E20004B464FF00002CDF800800028EAD14FF069
:102E30004001204601F026FA40B184F84170032099
:102E4000C3E735F8020BC0F30800E3E784F84170EC
:102E50000020BAE770B5044690F84100202801D060
:102E6000022070BD01B3FAB12162A284E284002085
:102E70006064212384F84130A56B144BEB63A56B90
:102E8000134B2B64A56B134BEB64A36B1865206885
:102E90001346A56B021D2846FEF710FC30B110202A
:102EA0006064202084F84100012070BD21686FF02B
:102EB000400008602068143050E8001F41F0800195
:102EC00040E80012002AF5D1002070BD5F3F0008E5
:102ED000A13F0008713E000870477047FEE7000000
:102EE000FEB56E4D00219FED6E0A05F1CB039FEDFF
:102EF0006D1A00BF01EB410000EBC100284450F8FF
:102F0000322F0092426801920289ADF80820847A3B
:102F10009DF800008DF80A40552874D10022104613
:102F20006E46375C401C3A44C0B292B20A28F8D3CD
:102F3000D0B2A04267D19DF802209DF803009DF811
:102F4000054042EA002082B29DF804009DF8076027
:102F500040EA04209DF806409DF8097044EA0624E2
:102F60009DF8086080B246EA07269DF80170A4B279
:102F7000B6B2512F06D0522F25D0532F44D0542F04
:102F800041D162E000EE902AF8EE600A60EE801A0D
:102F9000F3EE000A61EEA01AC3ED001A01EE900AEA
:102FA000F8EE611A61EE801A61EEA01AC3ED011A03
:102FB00001EE904AF8EE611A61EE801A61EEA00A05
:102FC000C3ED020A5BE000EE902AF8EE600A60EEC4
:102FD000801ADFED350A61EEA01AC3ED031A01EE87
:102FE000900AF8EE611A61EE801A61EEA01AC3ED44
:102FF000041A01EE904AF8EE611A61EE801A61EE51
:10300000A00AC3ED050A42E000EE902ADFED271A80
:10301000F8EE600A60EE800A60EEA10AC3ED060ACF
:1030200000EE900AF8EE600A60EE800A60EEA10AF7
:10303000C3ED070A00EE904AF8EE600A60EE800ADF
:1030400060EEA10AC3ED080A21E000EE902AF8EE36
:10305000601ADFED170A61EEA01AC3ED091A01EE3E
:10306000900AF8EE611A61EEA01AC3ED0A1A01EE99
:10307000904AF8EE611A61EEA00AC3ED0B0A00EE69
:10308000906AF8EE600AC0EE811AC3ED0C1A491C72
:10309000C9B20429FFF42EAFFEBD0000FD5200208E
:1030A000000000380000C8420000FA440000344329
:1030B0008D7A083C38B5174804682068C00627D5C3
:1030C00015492C2201F13200FDF711F9124890F850
:1030D000321055290ED190F83D1055290AD190F89B
:1030E0004810552906D190F85310552902D10121D5
:1030F00080F8641032210848FDF712F920686068F2
:103100000090BDE838402C2203490248FFF742BE38
:1031100038BD000080020020FD52002010B5114B88
:1031200088B093F8422099799C7E93F82E3098B11C
:1031300001280FD1CDE900320A4623460AA102A890
:1031400001F064F90021082302AA084600F03EFCC1
:1031500000F090FC08B010BD0092224605A001F0DE
:1031600045F9F7E7940000202564202564202564B4
:10317000202564004B45593A2025642C2025642CD9
:103180002025642C2025640D0A000000194808B58C
:10319000016841F400110160016801F4001100911F
:1031A000016841F4800101600068002200F48000A1
:1031B000009005211020FEF74BFC1020FEF73AFC92
:1031C000002205213920FEF743FC3920FEF732FCAE
:1031D000002205213A20FEF73BFC3A20FEF72AFCAC
:1031E000002205214620FEF733FCBDE808404620BA
:1031F000FEF720BC303802407CB5134A002113484A
:1032000001F06AFF124918244FF400750860114854
:103210000023CDE900402A460FA1134803F0C0FB6C
:1032200012480023CDE900402A4611A1154803F0B9
:10323000B7FB15480023CDE900402A4613A11748E3
:1032400003F0AEFB7CBD0000BC6D00080F3B000826
:103250000000002008010020726563656976655FE3
:103260005461736B00000000555B00080C010020E6
:103270006F746865725F726563656976655F5441F6
:10328000536B0000655100081001002065636F4D0D
:103290006F746F725F5461736B0000007D4D0008A6
:1032A0002DE9F04387B014216846FDF739F83A4814
:1032B0000024016841F080010160016801F0800193
:1032C0000591016841F004010160016801F0040109
:1032D0000591016841F001010160016801F00101FF
:1032E0000591016841F002010160016801F00201ED
:1032F0000591016841F0080101600068274F00F066
:1033000008000590002207213846FEF704FBDFF88D
:103310009080002210214046FEF7FDFADFF88490ED
:103320004FF44056002231464846FEF7F4FA072093
:1033300000900125CDE90154694638460394FEF713
:10334000F5F910200090CDE90154694640460394F8
:10335000FEF7ECF901AA1120009682E831006946D7
:103360004846FEF7E3F928038DE831006946384600
:10337000FEF7DCF904208DE8310069460A48FEF7C3
:10338000D5F930208DE8310069464846FEF7CEF980
:1033900007B0BDE8F083000030380240000802406A
:1033A0000000024000040240000C02400C4810B52E
:1033B0000A49016040F247314160002140F2E732A2
:1033C000C0E90212016180218161FEF773FE0028CD
:1033D00003D0BDE81040FDF7DABF10BD0048014042
:1033E000F001002010B58CB024216846FCF798FF4E
:1033F00000241648099414490A94C0E900144FF6B1
:10340000FF71C0E902418021046181610120CDE9A1
:103410000004CDE902040494CDE90540079469460F
:103420000A480894FEF744FF08B1FDF7B0FF09947D
:1034300009A906480A94FEF7FFFD002801D0FDF710
:10344000A6FF0CB010BD00000004004018010020D1
:1034500010B58CB024216846FCF762FF00241648A2
:10346000099414490A94C0E900144FF6FF71C0E9A9
:1034700002418021046181610120CDE90004CDE990
:1034800002040494CDE90540079469460A4808946B
:10349000FEF70EFF08B1FDF77AFF099409A9064867
:1034A0000A94FEF7C9FD002801D0FDF770FF0CB0AB
:1034B00010BD0000000800406001002010B58EB073
:1034C00000240794089409940A940B941C216846DC
:1034D0000C94FCF725FF2248204901605321C0E9E4
:1034E000011440F2E731C0E903148461FEF7E2FD04
:1034F00008B1FDF74CFF4FF48050079007A918481A
:10350000FEF768FE08B1FDF742FF1548FFF7E3F844
:1035100008B1FDF73CFF0B940BA911480C94FEF782
:103520008BFD08B1FDF733FF6020CDE90004029464
:10353000002269460A480494FFF767F808B1FDF7CE
:1035400026FF042269460648FFF75FF808B1FDF739
:103550001EFF0348FFF730F80EB010BD000C00400E
:10356000A80100200C4810B50A4901604FF4E13170
:103570004160002181600C22C160C0E904128161B8
:10358000C161FFF7DDFA002803D0BDE81040FDF768
:10359000FEBE10BD00100140380200200C4810B5DE
:1035A0000A4901604FF4E1314160002181600C2241
:1035B000C160C0E904128161C161FFF7C1FA00284E
:1035C00003D0BDE81040FDF7E2BE10BD004400404E
:1035D000800200200C4810B50A4901604FF4E13127
:1035E0004160002181600C22C160C0E90412816148
:1035F000C161FFF7A5FA002803D0BDE81040FDF730
:10360000C6BE10BD00140140C8020020FEE7FEE760
:1036100010B50021074C0A46002004EBC1131A54D0
:10362000401CC0B28028FAD3491CC9B20829F3D380
:1036300010BD0000AC4D0020F0B57F282AD83F29EE
:1036400028D88418802C02D9C0F18002D2B2CC18BC
:10365000402C02D9C1F14003DBB20126DFF838E08B
:1036600087180B4414E001F0070206FA02F5CA08B5
:1036700004460EEBC21207E012F804C02CEA050C57
:1036800002F804C0641CE4B2A742F5D8491CC9B2D0
:103690008B42E8D8F0BD0000AC4D002010B50120F1
:1036A00000F0FCF9BDE81040012000F0FFB970B552
:1036B00000240646802525FA04F0304000D0012081
:1036C00000F0F4F9012000F0E9F9002000F0E6F93B
:1036D000641CE4B2082CEED3012000F0DFF9BDE851
:1036E0007040002000F0DAB910B5012000F0DEF9DA
:1036F000012000F0D3F9002000F0D8F9BDE8104017
:10370000002000F0CBB910B5002000F0CFF9012067
:1037100000F0C4F9BDE81040012000F0C7B910B5B1
:10372000FFF7BCFFAE2000F0C9F9D52000F0C6F9C4
:10373000802000F0C3F9A82000F0C0F93F2000F07D
:10374000BDF9D32000F0BAF9002000F0B7F940200D
:1037500000F0B4F9A12000F0B1F9C82000F0AEF9F2
:10376000DA2000F0ABF9122000F0A8F9812000F077
:10377000A5F9CF2000F0A2F9D92000F09FF9F1209F
:1037800000F09CF9DB2000F099F9302000F096F968
:10379000A42000F093F9A62000F090F98D2000F00D
:1037A0008DF9142000F08AF9AF2000F087F9FFF7B7
:1037B0002FFFBDE8104000F05DB900002DE9F8438F
:1037C00091460F4680460024104E06E028464946A2
:1037D000FCF7B8FD60B1641CE4B204EBC40006EB76
:1037E0008000203005460AA1FCF7ACFD0028EDD191
:1037F00004EBC40006EB800000901023F9B208F03F
:10380000FF001A4600F036F8BDE8F8832A76000873
:103810000000000010B50C4640F0B00000F04EF97A
:10382000102040EA141000F049F904F00F00BDE840
:10383000104000F043B9000008B5082B0DD0062B4E
:103840000AD10A4B02EB420203EB4202C03A009259
:103850000823062200F00EF808BD054B03EB021208
:10386000A2F50072102300920822F3E7F07300081B
:10387000006E00082DE9FF5F1F46154681464CB2D9
:103880007F287DD80026B2464FF00108002C14DABC
:1038900038190297C7B2E043C11700EB517108EB2A
:1038A000E10221F00701401A401C00F0FF0A002449
:1038B00078B2D6B2012863DB01E03F2C60DCE1B2D4
:1038C0003B462A464846FFF7B7FE7F1EF81707EB30
:1038D000507108EBE100C3B20021DFF8ECE06EE0CC
:1038E000002068E009EB00027F2A66D8E71704EBA6
:1038F000577C01EBEC0BBBF1070F62DC0EEBCB1737
:1039000026B31744019700973A7801EB060BABF109
:10391000010717FB05F7DDF838C0844417F80C7071
:1039200027FA0AF73A43009F3A70DDF80880B8EBAF
:10393000CB0F3ED90BFB05F717F80C70CAF1080C3A
:1039400007FA0CF73A43019F3A7032E007EB02089E
:10395000CDF80480CDF8008098F8007011FB05F2D6
:10396000DDF838802CF0070C8044CDF80C8012F87C
:103970000880A4EB0C0C08FA0CF847EA080700E0F2
:103980001FE0DDF8008088F800700BF10107072FB9
:103990000FDCDDF80C80019FCCF1080C07F1800BE7
:1039A00012F8082097F8807022FA0CF217438BF86F
:1039B0000070401CC0B2A84294D3491CC9B29942BD
:1039C0008ED3BDE8FF9F0000AC4D00202DE9F843E9
:1039D0000025984616460F4681462C4636E00A28B2
:1039E00008D1B8F1080F36D00820002438446D1CE7
:1039F000C7B2EDB2621C02FB0890802806D9B8F16C
:103A0000080F2AD008203844C7B2002479B24029D0
:103A10001FDC725D7E2A22D900200090705D8DF837
:103A200000006D1CE8B24346325C401C8DF801205A
:103A3000C5B26A46705D8DF8020004FB089040B282
:103A4000FFF7BCFE6D1CEDB2A41CE4B2705D002853
:103A5000C5D1BDE8F8831020C7E71020D3E704FBE9
:103A60000890C0B243463946FFF7E6FE6D1CEDB242
:103A7000641CEAE770B5084D002400212046FFF7DA
:103A8000C9FE05EBC410802100F029F8641CE4B2E3
:103A9000082CF2D370BD0000AC4D002002464FF45C
:103AA00080510148FDF737BF0004024002464FF441
:103AB00000510148FDF72FBF0004024010B5044635
:103AC000FFF712FE7820FFF7F2FD0020FFF7EFFD71
:103AD0002046FFF7ECFDBDE81040FFF714BE70B5BF
:103AE0000D460646FFF700FE7820FFF7E0FD402078
:103AF000FFF7DDFD002404E0305DFFF7D8FD641C16
:103B0000E4B2AC42F8D3BDE87040FFF7FCBD01F071
:103B10002BFA0120FFF702FB0A2001F0A1FAF6E7D9
:103B200010B54FF0E020006902F092FF012803D0A9
:103B3000BDE8104002F0C0BC10BD000030B593B02D
:103B400030216846FCF7ECFB14210CA8FCF7E8FBDD
:103B50001D480025016841F080510160006800F0B7
:103B6000805011901948016821F4404141F400410E
:103B700001600068022400F4404011900120009090
:103B8000000401908001CDE9064008AA04205421D8
:103B900082E813000B906846FEF796F808B172B6FB
:103BA000FEE70CA90F2081E831004FF48050CDE9E9
:103BB0000F0502210CA8FDF77DFF002801D072B689
:103BC000FEE713B030BD00004038024000700040F6
:103BD0000248016841F470010160704788ED00E01F
:103BE0000148FEF751BC0000900400200148FEF798
:103BF0004BBC0000F0010020F0B502681F4B204CC8
:103C0000204D214E4FF0804C984207D0604505D0A2
:103C1000A04203D0A84201D0B04203D122F07007E5
:103C20004A683A43984210D060450ED0A0420CD06A
:103C3000A8420AD0B04208D0144CA04205D0144C7F
:103C4000A04202D0134CA04203D122F44074CA68AF
:103C500022434C6922F0800222438C68C4620C68C3
:103C60008462984201D109690163016841F004014D
:103C70000160012141610260F0BD000000000140CF
:103C80000004004000080040000C004000400140DB
:103C9000004401400048014010B501F01F0301211C
:103CA000046A99408C430462016A9A40114301629C
:103CB00010BD10B5846842EA032224F47F440A430D
:103CC0002243826010BD826822F070020A4342F0F3
:103CD000070181607047000030B5036A026A22F074
:103CE000010202624268846924F073050C682C4367
:103CF00023F002058B682B430A4DA8420BD123F019
:103D00000805CB6822F440722B434D6923F004036D
:103D100015438A692A4342608461496841630362AA
:103D200030BD00000000014030B5026A036A23F094
:103D300010030362436884690D6824F4E64444EA8E
:103D400005248D6822F0200242EA05120B4DA8429C
:103D50000ED1CD6822F0800242EA05124D6923F4AB
:103D6000406343EA85038D6922F0400243EA8503FC
:103D70004360846149688163026230BD0000014094
:103D800030B5036A026A22F4807202624268C46932
:103D900023F4007324F073050C682C438D6843EA08
:103DA00005230C4DA8420ED1CD6823F4006343EAED
:103DB00005234D6922F4405242EA05128D6923F42D
:103DC000806342EA05124260C4614968C1630362CC
:103DD00030BD00000000014030B5046A026A22F4E0
:103DE000805202624268C3690D6823F4E64343EAE5
:103DF00005238D6824F4005444EA0534064DA84296
:103E000004D14D6922F4804242EA85124260C361C6
:103E100049680164046230BD0000014010B5036AC6
:103E2000046A24F001040462846924F0F00444EA82
:103E3000021423F00A020A438461026210BD10B525
:103E4000036A046A24F010040462846923F0A00366
:103E500024F4704444EA023243EA011182610162AF
:103E600010BD10B5806B0021C185FEF727FD10BD88
:103E700070B5846B2068406994F84110C0F3C0109D
:103E80000025212904D118B1E584204600F0B4F8BA
:103E90002068406994F84210C0F38010222904D1B0
:103EA00018B1E585204600F080F8606C40F0100005
:103EB00060642046FEF702FD70BD10B50146806BC0
:103EC000096809684FF00002C9052ED4C28501684F
:103ED0000C3151E8003F23F4807341E80034002C9A
:103EE000F5D10168143151E8003F23F0010341E8A6
:103EF0000034002CF5D10168143151E8003F23F063
:103F0000400341E80034002CF5D1202180F8421014
:103F1000016B012909D101680C3151E8003F23F000
:103F2000100341E80034002CF5D14263016B0129F4
:103F300002D0FEF73DFF10BD818DFEF786FC10BD5F
:103F400010B5806B01214163016B012902D0FEF79E
:103F500030FF10BD818D4908FEF777FC10BD10B50C
:103F60000146806B09680968C90516D40021C1841F
:103F70000168143151E8002F22F0800241E800234B
:103F8000002BF5D101680C3151E8002F42F04002BE
:103F900041E80023002BF5D110BDFEF79DFF10BDB9
:103FA00010B5806BFEF799FF10BD01680C3151E828
:103FB000002F22F4907241E80023002BF5D1016814
:103FC000143151E8002F22F0010241E80023002BB8
:103FD000F5D1016B012909D101680C3151E8002F9D
:103FE00022F0100241E80023002BF5D1202180F8B7
:103FF000421000210163704701680C3151E8002F25
:1040000022F0C00241E80023002BF5D1202180F8E6
:104010004110704708B590F84210222901D00220C3
:1040200008BD82684FF480539A4201D1016921B1E1
:10403000816A9A421BD04AB10AE00268816A5268DA
:10404000C2F308020A80816A891C08E0026972B121
:104050000268526802F07F020A70816A491C81621C
:10406000C18D491E0904090CC18503D01BE00268FB
:104070005268F1E70168CA6822F02002CA6001684C
:10408000CA6822F48072CA6001684A6922F001029B
:104090004A61202180F8421000214163026B012A0D
:1040A00003D0FEF785FE002008BD016301680C31D6
:1040B00051E8002F22F0100241E80023002BF5D137
:1040C00001680A68D20602D50A6849680091818DA4
:1040D000FEF7BBFBE7E7000070B504460068016926
:1040E000E26821F44051114301612169A068E2694D
:1040F00008436169114308432168CA6849F20C63A7
:104100009A430243CA6020684169A26921F4407160
:104110001143416131492068884202D030498842C8
:1041200002D1FDF791FD01E0FDF77EFDE26900237C
:10413000192164253226B2F5004F626828D0A0FB11
:104140000101930F9200FCF7A1F80146B0FBF5F0D6
:104150006FF01802504301EB800006EB0010B0FB3B
:10416000F5F000F0F002B1FBF5F002EB0012B1FB4C
:10417000F5F06FF01803584301EB800006EB0010D8
:10418000B0FBF5F000F00F0021681044886070BDAE
:10419000A0FB010192185B41FCF778F80146B0FBE7
:1041A000F5F00201B1FBF5F06FF01803584301EB95
:1041B000800006EBC000B0FBF5F000F0F80002EB69
:1041C0004002B1FBF5F0584301EB800006EBC00064
:1041D000B0FBF5F000F00700D6E70000001001404A
:1041E0000014014038B581620446828500201346E0
:1041F0006064222284F84220E56B1F4AEA63E56B83
:104200001E4A2A64E56B1E4AEA64E26B10650A46A0
:104210002168E06B091DFDF751FA30B11020606490
:10422000202084F84200012038BD206801684068E1
:104230000090206948B120680C3050E8001F41F41C
:10424000807140E80012002AF5D12068143050E84F
:10425000001F41F0010140E80012002AF5D120685A
:10426000143050E8001F41F0400140E80012002ADD
:10427000F5D1002038BD0000BB3E0008413F0008DA
:10428000713E00082DE9F843984617460D4604464E
:10429000089E24E0701C22D0FDF742FBA0EB080032
:1042A000B0421AD8CEB12068C168490717D5802D11
:1042B00015D0402D13D00168C94309070FD40168F8
:1042C0000025406800902046FFF76FFE08206064DC
:1042D00084F840500120BDE8F8830320FBE7206804
:1042E000006835EA000004D00020B842D2D0002097
:1042F000F1E70120F9E7000010B500F007F8BDE88C
:1043000010400148FEF7DCBA3802002038B5114CE5
:1043100020680068C0061BD50F49012081F86400A1
:104320002046FEF793FA0C49322201F13200FBF7E6
:10433000DEFF32210848FBF7F3FF20680168406880
:1043400000902046BDE8384032220349FEF722BDE6
:1043500038BD0000380200209852002010B5FEF74A
:10436000A9FEBDE810400148FEF7AABA800200206D
:1043700010B500F007F8BDE810400148FEF7A0BAFC
:10438000C802002038B5164C20680068C00625D544
:10439000144D012085F864002046FEF757FA29469F
:1043A000322201F13200FBF7A2FFE06B00684068A7
:1043B0000021C0F13200C0B2284480F8321032210E
:1043C0002846FBF7ADFF2068016840680090294649
:1043D0002046BDE838403222FEF7DCBC38BD000084
:1043E000C802002062530020FEE700000FB4054B16
:1043F00010B503A9044A029800F006F910BC5DF854
:1044000014FB0000514F0008140100200FB4084BAA
:1044100010B504A902AA039800F0F6F8044602A910
:10442000002000F088FC204610BC5DF814FB000062
:10443000374D00080907090E002804DB00F1E020D1
:1044400080F80014704700F00F0000F1E02080F8C1
:10445000141D704702E008C8121F08C1002AFAD1D3
:1044600070477047002001E001C1121F002AFBD1F4
:10447000704700002DE9FF5F82B00021DDE90430C4
:10448000020DDDF840B0034318D044F61050A2F2FC
:10449000FF3242431514119801281FD0A5EB0B00E1
:1044A000401C5FEA000A4FF000064E4FDFF83891DB
:1044B000B046504615D5CAF1000413E01198012406
:1044C0004AA3012801D16FEA0B010298119AC0E9B1
:1044D0000031C0E9024206B0BDE8F09FCBF1000018
:1044E000DFE704460021404A491842EB0450CDE979
:1044F000001012E0E00707D032463B4640464946EE
:10450000FCF747FA8046894632463B461046194634
:10451000FCF73FFA06460F466410002CEAD1DDE9AD
:104520000401DDE90023BAF1000F06DAFCF731FAE5
:1045300042464B46FCF72DFA05E0FCF79CFA424652
:104540004B46FCF798FA04460E460022284BFCF72F
:1045500045FB03D84FF0FF30014607E00022254B12
:1045600020463146FCF76EF9FCF796FC102409E072
:10457000002C0ADB0A220023FBF788FE039B303263
:104580001A55641E50EA0102F2D1641C039AC4F168
:1045900011031444119A012A03D0012208430DD1BA
:1045A0000AE0084304D000204FF0110B119072E78D
:1045B000A3EB0B056D1E0DE05B4504DD4FF0000223
:1045C00005F1010504E003DA4FF00002A5F1010551
:1045D000002AECD002981199C0E90231C0E90045E7
:1045E00079E70000000014400000F03F30000000B8
:1045F0000000F0430000E03F30380A2801D20120DB
:1046000070470020704700002DE9FF4F95B09B4692
:104610008946064600250FE2252877D10024274643
:10462000F84A0121059400E0044316F8013F203BBD
:1046300001FA03F01042F7D130782A2811D06FF038
:104640002F033078A0F13002092A16D8059A44F0D9
:10465000020402EB820203EB42021044761C059036
:10466000EFE759F8042B0592002A03DA504244F48C
:104670000054059044F00204761C30782E2816D1A0
:1046800016F8010F44F004042A280DD06FF02F0211
:104690003078A0F13003092B09D807EB870302EB30
:1046A0004303C718761CF3E759F8047B761C30786F
:1046B0006C280FD006DC4C2817D068280DD06A284B
:1046C00014D104E0742810D07A280FD10DE044F4FE
:1046D00000140AE044F4801401E044F440147278B9
:1046E000824202D104F58014761C761C307866284C
:1046F0000BD013DC582877D009DC002875D045286A
:10470000F6D04628F4D047281AD19DE118E0632856
:1047100035D0642879D0652812D195E1702873D0FE
:1047200008DC6728F1D069286FD06E280DD06F287B
:1047300006D1B5E073282CD0752875D0782874D0B0
:104740005A46179990476D1C75E1C4F30250022830
:1047500009D003280DD0D9F8001004280DD00D6021
:1047600009F1040967E1D9F80010EA17C1E900521C
:10477000F6E7D9F800100D80F2E70D70F0E719F8B0
:10478000041B8DF8001000208DF80100EA4601207E
:1047900003E059F804AB4FF0FF3061074FF0000120
:1047A00002D40DE008F101018846B9420FDA8045D4
:1047B000F8DB1AF808100029F4D108E008F101012B
:1047C00088468142FADB1AF808100029F6D10598CC
:1047D0005B46A0EB080721463846179A00F094FA8A
:1047E000284400EB080507E04DE029E10DE01AF848
:1047F000010B5A4617999047B8F10108F7D25B466A
:1048000021463846179A13E142E00A220092C4F387
:1048100002524FF0000A022A08D059F804CB032AAA
:104820004FEAEC710AD00DE029E02AE009F1070116
:1048300021F00702F2E802C1914609E00FFA8CFC70
:104840004FEAEC71042A03D14FFA8CFC4FEAEC7169
:10485000002907DA0A460021DCF1000C61EB0201B5
:104860002D2202E0220504D52B228DF804200122FE
:1048700003E0E20701D02022F7E7904659E00A2141
:1048800002E010220DE010214FF0000A00910BE031
:1048900010224FF0000A44F004040827009203E0BD
:1048A00008224FF0000A0092C4F30252022A05D0F7
:1048B00059F804CB0021032A08D009E009F10701C7
:1048C00021F00702F2E802C1914605E01FFA8CFCD4
:1048D000042A01D10CF0FF0C4FF00008220728D564
:1048E000702806D0009B83F0100353EA0A0305D01A
:1048F0000EE040228DF80420012208E05CEA01026B
:1049000006D030228DF804208DF805000222904652
:10491000009B83F0080353EA0A030AD15CEA010210
:1049200001D1620705D530228DF804204FF001082F
:104930007F1E582804D034A003900EA802900DE0EA
:1049400036A0F9E753466046009AFBF79FFC844681
:104950000398825C0298401E029002705CEA01009B
:10496000F0D1029806A9081A00F1200A600702D5C2
:1049700024F4803400E00127574502DDA7EB0A004C
:1049800000E0002000EB0A01009005984144401A25
:104990000590E00306D45B462146179A059800F07F
:1049A000B3F90544002706E001A85A46C05D1799EF
:1049B00090476D1C7F1C4745F6DBE0030CD55B463A
:1049C0002146179A059800F09FF9054404E030202D
:1049D0005A46179990476D1C0099481E009000296F
:1049E000F5DC08E0029802995A460078491C0291C9
:1049F000179990476D1CBAF10001AAF1010AF1DC88
:104A000065E1000009280100303132333435363792
:104A1000383961626364656600000000303132330A
:104A200034353637383941424344454600000000AA
:104A300000F058F90544761C307800287FF4ECAD7E
:104A400019B02846BDE8F08F620700D4062709F1A7
:104A5000070222F0070CFCE80223E14603F00048BD
:104A60005FEA080C02D00FF2702C0DE05FEA045CE4
:104A700002D50FF2682C07E05FEAC47C02D00FF287
:104A8000602C01E0AFF2700C4FF0FF3823F00043D0
:104A9000CDF850C065280CD006DC452809D0462842
:104AA0001DD047283DD13DE0662818D067287ED12B
:104AB00038E00021112F01DB112000E0781CCDE946
:104AC000000106A90EA8FFF7D5FCDDE90F010E9A3B
:104AD00003910021009207F1010A04914DE04FF08B
:104AE00000400097CDE9011006A90EA8FFF7C2FC0F
:104AF000DDE90F0203920E9B11990022DDF80CA054
:104B00000093049211B9791C00EB010AB7EB0A007B
:104B100004D4C0F1FF3007F1010A0490AAEB0700AA
:104B2000019044E0012F00DA01270021112F01DD5F
:104B3000112000E03846CDE9000106A90EA8FFF7D4
:104B400099FCDDE90F010E9A039100210491009276
:104B5000BA4621070CD40399514500DA8A46BAF1C6
:104B6000010F05DD009AAAF10101515C302908D03E
:104B7000B84202DA10F1040F06DA0121CDE9011082
:104B800015E0AAF10101E9E7002805DC04990144D8
:104B90000491AAEB000102E0411C514500DD8A4668
:104BA0000499401A401C01904FF0004002902007E9
:104BB00004D40198504501DBCDF8048000208DF825
:104BC0004F0002980DF14F07B0F1004F25D02B2078
:104BD0000E9002984FF0020800280CDA4042029032
:104BE0002D200E9007E00A210298FCF72BF83031B7
:104BF000029007F8011DB8F10001A8F10108F2DCEC
:104C000002980028EFD1791E0E980870307800F0D5
:104C1000200040F0450007F8020D12A8C01B00F16B
:104C200007081498007800B1012000EB0A010198F0
:104C300001EBE07105984144401A401E0590E003E5
:104C400006D45B462146179A059800F05DF80544A6
:104C50001498007818B15A46179990476D1CE003D4
:104C600024D55B462146179A059800F04DF8054477
:104C70001CE00498002807DBDDE90301884203DD1E
:104C80000098405C179901E0179930205A469047E8
:104C9000049805F10105401C04900198401E019004
:104CA00004D12E205A46179990476D1CBAF1000185
:104CB000AAF1010ADDDC05E017F8010B5A46179945
:104CC00090476D1CB8F10001A8F10108F4DC5B46C7
:104CD0002146179A0598ABE62D0000002B00000036
:104CE000200000002DE9F041044600251E4617462D
:104CF000880404D405E039462020B0476D1C641EAA
:104D0000F9D52846BDE8F0812DE9F041044600259B
:104D10001E469046C80301D5302700E020278804AE
:104D200004D505E041463846B0476D1C641EF9D5F0
:104D30002846BDE8F0810A68531C0B60107070476C
:104D400000B58DB00B46024608A16846FFF75EFB32
:104D50006846FBF7F0FA82B207486946C068FEF77A
:104D600079F8032001F0DEF90DB000BD25733D2276
:104D7000257322FFFFFF0000E40000202DED028BD1
:104D800000249FED0C8A0C4E0C4DB07E012804D1FE
:104D9000B0EE480A0A4800F003FA2878012801D149
:104DA000B4762C700121064800F02EFA0A2001F09A
:104DB000B9F9EAE70000B44294000020E4000020C2
:104DC0005C52002010B53B49394801F114042DED27
:104DD000068B0223384A48606260384A8A60CA609B
:104DE0000B8201234B823649C4E902121021218231
:104DF000042161823C21FDF7FFFA3C216068FDF748
:104E0000FBFA00212F48FDF795FC04212D48FDF702
:104E100091FC2D496FF00100096808612A48FDF7EF
:104E2000A3F99FED2E8ADFED298A9FED299ADFED08
:104E3000299A9FED29AADFED2AAAB0EE683AF0EE92
:104E4000492AB0EE692AF0EE4A1AB0EE481AF0EE9E
:104E5000480AB0EE6A0A04F1140000F0CFF9B0EE8F
:104E6000683AF0EE492AB0EE692AF0EE4A1AB0EE3E
:104E7000481AF0EE480AB0EE6A0A04F1500000F059
:104E8000BDF9B0EE683AF0EE492AB0EE692AF0EECC
:104E90004A1ABDEC068B04F18C00BAEE000ABDE89C
:104EA00010409FED101ADFED100A00F0A7B90000C6
:104EB00018010020BC5100206001002000080240C1
:104EC00000000240A8010020F0010020000048C2BC
:104ED0000000484200007AC400007A44000000004C
:104EE0000000C442A69BC4BBCDCC4CBF70B50546E8
:104EF0000C1E8068298A14DD5FF00102FCF70BFDAF
:104F0000698A0022D5F80C00FCF705FD0E4A6042C4
:104F10000E4995420ED1002C00DA0446086844631D
:104F200070BD4FF00002E9DAFCF7F5FC698A012256
:104F3000E868E9E7044A14329542F1D1002C00DA1E
:104F400004460868846370BDBC510020A80100209D
:104F500013B50523012269460248FDF72BFF00988F
:104F60001CBD0000C80200202DE9F0470026214F9B
:104F70004FF0020A4FF00109B04600BFFCF7D0FC29
:104F8000054606EB860007EB800457F82000A18851
:104F9000FCF7BCFC0028E07902D002281CD021E0FC
:104FA00020B1012805D002280AD01DE0256184F82F
:104FB00007902069281A0A2816D3256184F807A0CB
:104FC0002069281AB0F57A7F0ED30320E07184F8A7
:104FD00006A084F8088007E084F80690E560207A4F
:104FE000401C207284F80780761CF6B2042EC5D3CC
:104FF000BDE8F08794000020FCF7A0FCFEF79EFDC2
:10500000FEF74EF9FEF7C2F8FEF7ACFAFEF7C6FA65
:10501000FEF7E0FAFEF752FAFEF71AFAFEF7E2F9A7
:10502000FEF7C4F900F0A8FDFFF7CCFEFEF777FB12
:10503000062307A210210020FEF7C8FCFEF71AFD88
:1050400000F01CF8FEF7D8F800F02AF8FEE70000A0
:105050004D656E75207072657373204B65793100F4
:1050600010B5EFF3058111B16FF0050403E00024E2
:1050700008B101F057F8204610BD0000EFF305809D
:1050800010B16FF0050070470448016811B14FF08E
:10509000FF3070470121016000207047640000204C
:1050A00010B5EFF3058010B16FF0050010BD084892
:1050B0000168012902D04FF0FF3010BD054A0021E0
:1050C00082F8141D0221016001F094F8002010BD47
:1050D000640000200BE000E02DE9FF414FEA0103EE
:1050E0004FF00005EFF30581039549BB40B38027DE
:1050F000182100244AB3166806B1344696691EB1D9
:105100003146761E382E02D21679F60703D00020DB
:1051100004B0BDE8F081566906B1B708D2F808C0FE
:10512000BCF1000F0DD0D5685C2D18D312693AB1CF
:1051300036B18DE806103A46214601F05EFC039038
:105140000DE0D6685EB912694AB903AACDE900122A
:10515000BAB2214601F024FC012800D0039503983F
:10516000D6E700000C4C0D4D002600BF01F0C0F842
:1051700000F03CFD00F08CFDA079012807D1A6715C
:10518000287A401CC0B22872022800D92E720A2048
:1051900000F0C8FFEAE7000094000020E4000020CF
:1051A00010B504461248F0EE400A9FED121A90ED39
:1051B000050A2046B8EEC00A00F050F894ED0A0A3D
:1051C000BDEEC00A10EE100A01B20B48FFF78EFECA
:1051D00094ED0A0ABDE81040B1EE400ABDEEC00AE7
:1051E00010EE100A01B204481430FFF77FBE000031
:1051F000FC5300200AD7233CBC51002080EC030A5A
:105200002C30C0EC041A70472DE9FF41804601297B
:1052100018D1D8F82800FBF7CDFC06460F46D8F881
:105220001000FBF7C7FC04460D46D8F80C00FBF74E
:10523000C1FC8DE8F00041EC100B03A053EC102BE7
:10524000FFF7D4F8BDE8FF81252E32662C20252EED
:1052500032662C20252E32660D0A0000B5EEC01AEB
:10526000F1EE10FA27D980ED030A30EEC00AC0ED46
:10527000040A80ED050AD0ED080A40EE010AC0EDEF
:10528000080AD0ED061A70EE612A82EE812A80EDBE
:10529000092A90ED001AD0ED012A21EE001A02EE43
:1052A000A01AD0ED020A00EE821A80ED0A1AC0EDB3
:1052B000071A80ED060A70472DE9F041134C0F469E
:1052C0000546E6682068001D00F0F8FD681C07D15F
:1052D00037B12168BDE8F0410D48091D00F03EBE20
:1052E00020683544B5424560216805D2A06BBDE811
:1052F000F041091D00F01ABE606B091D00F016FE9A
:10530000A06A854200D2A562BDE8F08114000020A9
:10531000C80900202DE9F041054600F02BFE2D4C78
:10532000A068401CA06020682B4F10B1606930B3AA
:105330002BE02560A068012827D1002606EB860017
:1053400007EB800000F0E4FD761C382EF6D32348EE
:1053500000F0DEFD2148143000F0DAFD1F4828304F
:1053600000F0D6FD1D483C3000F0D2FD1B48503007
:1053700000F0CEFD194860631430A06305E020689A
:10538000E96AC06A884200D82560606A401C606291
:105390006864E86A2169884200D9206100EB8000D6
:1053A00007EB8000291D00F0D9FD00F003FE6069C5
:1053B00000280CD02068E96AC06A884207D20849F0
:1053C0004FF080500860BFF34F8FBFF36F8FBDE881
:1053D000F08100001400002018050020780900204A
:1053E00004ED00E038B500F0C5FD104C2068C8B9E8
:1053F0000F4800F08DFD0E48143000F089FD0C4878
:10540000E060143020610A4B0020F03B009003F173
:10541000500210210A2001F065F8206010B105A1AA
:1054200000F04AFEBDE8384000F0C4BD5000002046
:10543000CC0A0020546D72510000000030B4026CA0
:105440000B46002A0BD0C1681144C1608468A14298
:1054500001D30168C16030BC1846FAF748BF30BCC0
:1054600070472DE9F041856B174604460026026C13
:1054700082B1C7B1E068FAF73AFFE168206C091A17
:10548000E1602268914202D2A168081AE060022F0E
:1054900016D017E02068A8B9A06801F051FB0646B5
:1054A0000020A0600EE06068FAF721FF216C6068C0
:1054B00008446060A168884204D32068606001E00D
:1054C00005B16D1E6D1CA5633046BDE8F08110B5B9
:1054D000044690F8590058B101280CD002280FD08A
:1054E000502080F31188BFF34F8FBFF36F8FFEE71B
:1054F000206B00F073FD2046BDE8104000F06EBD4B
:1055000010BD000010484FF47051420706D0C01D76
:105510000D4920F00700411AC1F570510B4A0023D4
:105520000144C2E900030839183A21F0070111606B
:105530004B600B600B1AC0E9001393604FF0004002
:105540005360506170470000AC11002080000020C3
:10555000144E154CA6F29C474FF08058DFF84C9043
:1055600012E000BF00F006FDF068C568281D00F0DD
:10557000A5FCA068401EA0606068401E606000F04E
:1055800019FD2846FFF7A3FF60680028EAD13868B4
:105590000128F9D9C9F80080BFF34F8FBFF36F8F8F
:1055A000F2E70000B40900201400002004ED00E040
:1055B00070B51D46049C51B1C4F80020C4E90F0128
:1055C0000121204600F0C2FF84F84C5070BD2460D9
:1055D000F4E700002DE9F05F8846DDE90B941546FD
:1055E000834691009A460A9EA522206BFAF791FE07
:1055F0006FF00301206B01EB8501084420F00707E1
:10560000780707D0502080F31188BFF34F8FBFF386
:105610006F8FFEE70025B8F1000F0FD05FF000009C
:10562000221818F8001082F8341018F8001011B180
:10563000401C1028F4D384F8435001E084F834501F
:10564000382E00D33726E662C4E91365201D00F02A
:105650006AFC04F1180000F066FC2461C6F1380011
:105660006462A061656584F85850524659463846D0
:1056700000F05AFA2060B9F1000F01D0C9F80040DB
:10568000BDE8F09F30B5114900E011460A6882423A
:10569000FBD34B685C18844203D1406818444860CF
:1056A000084643681C18944209D1084C183C2468E9
:1056B000A24209D052681A4442600A681268026025
:1056C000814200D0086030BD0460F9E7800000200E
:1056D00070B5002441600B4D0061914206D8D11A8B
:1056E0008269914206D2011D286907E09A4203D2DD
:1056F000994201D3012403E0011DE86800F016FC83
:10570000204670BD5000002010B5044600F032FC69
:10571000A06B28B15FF0000400F04CFC204610BDE7
:105720000124F9E730B589B03C4D6EE004980028BB
:1057300006DADDE90601059A90470498002864DB43
:10574000069C606910B1201D00F0B8FB03A800F0B2
:10575000D7F8024604980A2857D2DFE800F005057A
:10576000052D334A05052D3394F8280040F001003B
:1057700084F828000599A069059B01442046FFF79D
:10578000A7FF68B3216A2046884794F8280040079D
:105790003BD5002000900598A169002342181946C6
:1057A000204601F0D7FAD8B9502080F31188BFF312
:1057B0004F8FBFF36F8FFEE714F8280F20F0010022
:1057C000207022E094F8280040F0010084F82800BE
:1057D0000598A06128B1811813462046FFF778FF8D
:1057E00013E0502080F31188BFF34F8FBFF36F8F0A
:1057F000FEE794F82800810703D4204600F0EEFB72
:1058000003E020F0010084F82800002204A92868A1
:1058100000F0F0FF002889D109B030BD5000002011
:105820002DE9FC410F46054600F028FD01A800F0D7
:1058300067F80446019818B101F0FAF9BDE8FC8157
:10584000254EAFB130690068D0B30027291B3A4616
:10585000306800F045FC01F0EBF90028EED11F495B
:105860004FF080500860BFF34F8FBFF36F8FE5E7B5
:10587000A542EBD801F0DCF9F0682746C068C4689F
:10588000201D00F01BFB94F82800410719D5A069E2
:105890002B4641193A462046FFF71AFFA8B10020CF
:1058A0000346014600902A46204601F053FA60B9AB
:1058B000502080F31188BFF34F8FBFF36F8FFEE747
:1058C00007E020F0010084F82800216A204688477C
:1058D000B4E70127BAE700005000002004ED00E023
:1058E0000648416B096829B1416BC968C9684968B4
:1058F000816270474FF0FF31FAE70000140000208A
:1059000070B5054601F0B2F8064E0446B068844210
:1059100003D200F009F8012000E0002028602046B2
:10592000B46070BD50000020F8B5194D20E0C0688B
:10593000C4680668201D00F0C1FA216A2046884725
:1059400094F82800400713D5A0693044B04206D926
:1059500024616060211DE86800F0E8FA08E000209A
:105960000346014600903246204601F0F3F938B173
:10597000E86801680029DAD12969C5E90310F8BD92
:10598000502080F31188BFF34F8FBFF36F8FFEE776
:105990005000002008484068401C4FF0500080F341
:1059A000118804D0BFF34F8FBFF36F8FFEE7BFF3B3
:1059B0004F8FBFF36F8FFEE788000020074CE06831
:1059C000016841B1C0680021D0F80000FFF728FF4E
:1059D000FFF7A8FEF3E701210020F7E750000020C1
:1059E0002DE9F041044600F0C5FA94F9455004F160
:1059F000240609E0606A48B1304601F0E1F808B1D8
:105A000000F0BEFB6D1E6DB2002DF3DC4FF0FF36D3
:105A100084F8456000F0CEFA00F0ACFA94F94450F6
:105A200004F1100709E0206948B1384601F0C8F8D0
:105A300008B100F0A5FB6D1E6DB2002DF3DC84F8FB
:105A40004460BDE8F04100F0B5BA00002DE9F04136
:105A50000546002700F012FC324E306808B9FFF707
:105A600051FD706905424ED1C5B3083568070ED0A7
:105A700005F00700C0F108000544680707D0502072
:105A800080F31188BFF34F8FBFF36F8FFEE72DB305
:105A90007068854237D82348183001460C6801E009
:105AA00020460C466168A94202D221680029F7D13C
:105AB00031688C4227D00768216801606068083728
:105AC000411B10290FD96019420708D0502080F3DC
:105AD0001188BFF34F8FBFF36F8FFEE713E0416074
